:1000000035C1000064C1000062C1000060C1000091
:100010005EC100005CC100005AC1000058C1000070
:1000200056C1000054C1000052C1000050C1000080
:100030004EC100000C94260C4AC1000048C10000CB
:1000400046C100000C94770F42C1000040C100007F
:100050003EC100003CC100003AC100000C943B16B8
:1000600036C100000C940D0D0C94E40C30C100005E
:100070002EC100002CC100002AC1000028C10000D0
:100080000C944A0F24C1000022C1000020C10000CE
:100090000C94AE0C0C94850C1AC100000C94BF0D8E
:1000A00016C1000014C100000C941D0F10C1000007
:1000B0000EC100000CC100000AC100000C94F00E3B
:1000C00006C1000004C1000002C1000000C1000020
:1000D000FEC00000FCC00000FAC00000F8C0000034
:1000E000F6C00000B415B715A615AA15AE15EE1585
:1000F000BB15BF15C515C915CD15D315D715DB15FE
:10010000EE15E115E515E915000020410000C84293
:1001100000401C4620BCBE4CCA1B0E5AAEC59D7486
:10012000CDCCCC3D0AD7233C17B7D13877CC2B3276
:100130009595E6241FB14F0A253032752F253032B0
:10014000752F2530347520253032753A25303275BB
:100150003A25303275000200002200250028002BCD
:10016000002E003100340002010000050108010BDF
:100170000100002100240027002A002D0030003358
:100180000001010000040107010A0105050505073A
:100190000508080808020202020A0A080804040402
:1001A000040101010101010101030303030303032E
:1001B00003040707070C0C0C0C0C0C0C0C020202BD
:1001C0000206060606060606060B0B0B0B0B0B0BB0
:1001D0000B0102102020080810204010204080024F
:1001E000010201080402010102040810204080807D
:1001F0004020100804020180040201804020100801
:1002000004020108040201010204081020408001D8
:10021000020408102040801F1C1F1E1F1E1F1F1ECF
:100220001F1E1F00000A0B02090C0D0E0807030415
:1002300001000000000000000000000000000000BD
:10024000000000000000000000000000000000129C
:10025000111000000000000000000000000000007D
:1002600000000000000000000000061B11241FBE5B
:10027000CFEFD1E2DEBFCDBF00E00CBF13E0A0E0C6
:10028000B2E0E4E2F5E400E00BBF02C007900D929B
:10029000AC3FB107D9F726E0ACEFB3E001C01D9247
:1002A000A03DB207E1F711E0C6E3D1E000E006C0EF
:1002B00021970109802FFE010E946E20C533D107CE
:1002C00080E00807A9F70E9485160C94902298CE2A
:1002D0000F931F93CF93DF93DB0112964D915C91A7
:1002E0001397FC0120813181C281D381F901E40F90
:1002F000F51FEC17FD07C8F4808181110EC0DB01EA
:10030000ED91FC91D9018F01040F151F0E171F07E6
:1003100079F091918D919817C9F3C901DC0101968B
:10032000EC91E111FBCF9C01E1CF80E090E001C0B6
:10033000C901DF91CF911F910F910895CF93DF9362
:10034000DC01EB01EC81FD818A819B810896E81735
:10035000F90718F481E0888722C03897FD83EC8381
:100360003097E9F01296CD91DC911397209751F0D8
:10037000CF018C1B9D0B23E0959587952A95E1F77E
:100380008D8303C01196FC93EE931396FC93EE932A
:1003900012971582148217821682CF0102C080E064
:1003A00090E0DF91CF9108954F925F926F927F928C
:1003B0009F92AF92BF92CF92DF92EF92FF920F93F4
:1003C0001F93CF93DF93EC018B0188818B3231F047
:1003D0008D3229F42196AA24A39402C02196A12C3F
:1003E000888190ED980F9A3018F08E3209F03DC157
:1003F000C12CD12C7601FE018191A0EDBA2EB80E50
:1004000029E02B1528F18AE9C81689E9D806E806FB
:1004100089E1F806F8F4AAE0B0E0A70196010E948D
:10042000D81F6B017C018B2D90E0A0E0B0E0AC0107
:10043000BD0140955095609570954C155D056E0514
:100440007F0540F0C80ED91EEA1EFB1EEF01D3CF78
:10045000882339F0B12CEAE04E2E512C612C712CFE
:1004600022C0AA20A9F091E0C916D104E10490E8C5
:10047000F90680F76AE0C80104960E94CD0FF09457
:10048000E094D094C094C11CD11CE11CF11C05C0A7
:1004900068E0C80104960E94CD0FF801C082D182A5
:1004A000E282F382E0C0C114D104F0E8EF06F10467
:1004B00050F0C701B601A30192010E94E81F690133
:1004C0007A01B394F0CFFE01899190ED980F9A30A4
:1004D00010F4B394F8CF8E3201F5EF012196FE01AE
:1004E0002196808170ED972E980E29E02915A8F0AD
:1004F0008CECC816D8068CE0E806F10480F7AAE078
:10050000B0E0A70196010E94D81F6B017C01C90CC5
:10051000D11CE11CF11CBA94E2CF80818F7D85341F
:1005200009F052C081818D3219F4329651E006C033
:100530008B3211F0319601C0329650E0DF01C0E0FD
:10054000D0E06AE08B2D0B2C000C990BFD014D9136
:1005500020ED240F2A3090F56C9F90016D9F300D97
:100560001124C42F440FDD0BE097C20FD31F9C0151
:100570002C0F3D1F273231054CF3C801049655233B
:1005800061F0AA2031F0C12CD12CE12C60E8F62ECC
:1005900013C0C12CD12C76010FC0A11007C0C12CF3
:1005A000D12C50E8E52E5FE7F52E06C0C12CD12CEA
:1005B00040E8E42EFF24FA946CE04EC0552331F05D
:1005C000D195C195D10902C0C0E0D0E080818111F0
:1005D0004CC0CB0DD11DB7FCDA95C701B6010E9406
:1005E000A71E1C161D06ACF4F12CC0FF0CC024E0A5
:1005F000F29EF0011124E85FFE4F2591359145915F
:1006000054910E94081FD595C795F394209769F7D8
:1006100018C0D195C195D109F12C209791F0C0FF58
:100620000CC024E0F29EF0011124E05EFE4F259103
:100630003591459154910E94081FD595C795F39423
:10064000ECCF6B017C01AA2021F0F7FAF094F7F8C7
:10065000F0946CE0C80104960E94CD0FF801C082AE
:10066000D182E282F38281E001C080E0DF91CF910C
:100670001F910F91FF90EF90DF90CF90BF90AF90C0
:100680009F907F906F905F904F900895FC018685BA
:10069000811117C0A185B28583859485A817B907F4
:1006A00038F4CD010196928781872C9130E002C009
:1006B0002FEF3FEF37FF02C020E030E0258781E0D9
:1006C000868785850895CF93DF93EC01CE01DEDF29
:1006D0008B302CF48930B4F4882331F015C08D3080
:1006E00089F0803289F40EC08885811103C081E0D1
:1006F00090E002C082E090E0CF5ADF4F9983888378
:1007000080E004C01E86E2CF81E08887DF91CF9130
:100710000895CF92DF92EF92FF92CF93DF9300D0B4
:100720001F921F92CDB7DEB7FC01892B09F44FC091
:1007300084818F778630B1F070F4843008F447C03C
:10074000808191811D82BE016F5F7F4F2DDECE01C2
:100750000196DFDF44C08A3099F08C3001F1883097
:10076000B1F503C0808190E03AC080819181A2817F
:10077000B381811520E89207A105B10580F127C05A
:1007800080819181A281B381AC01BD0150586F4F2E
:100790007F4F411551056140710508F118C0C080B7
:1007A000D180E280F38020E030E040E057ECC701E8
:1007B000B6010E944A2087FD0AC020E03EEF4FEFBD
:1007C00056E4C701B6010E94A31E18161CF480E06F
:1007D00090E005C0C701B6010E941920CB010F901F
:1007E0000F900F900F900F90DF91CF91FF90EF90AF
:1007F000DF90CF9008950F931F93CF93DF93CDB7E2
:10080000DEB764970FB6F894DEBF0FBECDBFFC0114
:1008100085811F928F9384811F928F9383811F9272
:100820008F93808190E08053984F9F938F93828124
:100830001F928F9381811F928F9388E391E09F9302
:100840008F931F9284E18F938E010F5F1F4F1F9331
:100850000F930E94BA1BB80186EE94E00E9420110B
:100860000FB6F894DEBF0FBECDBF64960FB6F894F6
:10087000DEBF0FBECDBFDF91CF911F910F910895C5
:10088000CF9361E086E10E9485158091B4068033A4
:1008900008F051C089E00E9430118091B406E82F21
:1008A000F0E09F01220F331FE20FF31FE05EF94FCC
:1008B0009081907C996090831092B5061092B60654
:1008C0006CE00E944E209CE0899FB001112440E022
:1008D00050E09B01240F351FF901EE0FFF1F2E0F73
:1008E0003F1FF901E05EF94F908196FD17C04F5F01
:1008F0005F4F4C30510569F7813009F0F2C1109219
:10090000800082E080938100109285001092840024
:10091000B19A80916F00826080936F00E091B4067D
:10092000F0E0CF01880F991FE80FF91FE05EF94F43
:1009300080818064808384E190E00E944F1160EDAB
:1009400077E080E090E00E94031686E990E00E9444
:100950004F1160ED77E080E090E00E940316E09197
:10096000B406F0E0CF01880F991FE80FF91FE05E91
:10097000F94F80818F7B808380910002853221F046
:100980008F3F09F095C104C0E6E5F1E0C491E0C0F5
:1009900085E280930002E6E5F1E0E491EF3F09F49F
:1009A00087C1E23009F46CC038F5EE2309F44DC07C
:1009B000E13009F0CCC0109280001092810080914B
:1009C00081008860809381008091810081608093A4
:1009D0008100E0EBF1E0E491F0E0EE0FFF1FE95A57
:1009E000FE4F85919491E6EFF1E0E491E093FF03EF
:1009F00085E20E943011B9C0E43009F487C008F4E0
:100A000064C0E53009F0A3C01092200110922101CA
:100A10008091210188608093210180912101816072
:100A200080932101E0EBF1E0E491F0E0EE0FFF1F95
:100A3000E95AFE4F85919491E6EFF1E0E491E0935D
:100A4000FC0385E20E943011C1C014BC15BC84B502
:100A5000826084BD85B5816085BDE0EBF1E0E49105
:100A6000F0E0EE0FFF1FE95AFE4F85919491E6EFFB
:100A7000F1E0E491E093000485E20E9430115DC151
:100A80001092B0001092B1008091B000826080930B
:100A9000B0008091B10081608093B100E0EBF1E0A3
:100AA000E491F0E0EE0FFF1FE95AFE4F859194911B
:100AB0009093160480931504E6EFF1E0E491E0933F
:100AC000170485E20E94301196C010929000109297
:100AD00091008091910088608093910080919100B5
:100AE000816080939100E0EBF1E0E491F0E0EE0FA3
:100AF000FF1FE95AFE4F85919491E6EFF1E0E491F2
:100B0000E093FE0385E20E9430114EC01092A000D7
:100B10001092A1008091A10088608093A100809133
:100B2000A10081608093A100E0EBF1E0E491F0E0AE
:100B3000EE0FFF1FE95AFE4F85919491E6EFF1E029
:100B4000E491E093FD0385E20E94301136C0CE2F80
:100B5000C7FDAEC085E20E943011CC2309F4EDC080
:100B6000C23009F448C0C130E9F480918100887F27
:100B700083608093810083EC99E090938900809357
:100B800088008FEF9FEFDC0180930D0490930E049B
:100B9000A0930F04B093100480916F008260809343
:100BA0006F0086C0C33039F480919100887F8360E4
:100BB0008093910039C0C43039F48091A100887FBE
:100BC00083608093A10047C0C53039F48091210132
:100BD000887F83608093210155C0C33029F12CF4B4
:100BE000C23009F065C083EC0CC0C430A1F1C5303F
:100BF00009F448C05DC08091B10087608093B10066
:100C00008BE98093B3008FEF9FEFDC018093180492
:100C100090931904A0931A04B0931B048091700060
:100C200082608093700044C083EC99E090939900B7
:100C3000809398008FEF9FEFDC01809309049093DD
:100C40000A04A0930B04B0930C048091710082609D
:100C5000809371002DC083EC99E09093A90080935C
:100C6000A8008FEF9FEFDC018093050490930604AA
:100C7000A0930704B093080480917200826080936F
:100C8000720016C083EC99E09093290180932801AB
:100C90008FEF9FEFDC018093010490930204A093F7
:100CA0000304B09304048091730082608093730006
:100CB00064EF71E080E090E00E94031685E282D547
:100CC00064EF71E080E090E00E94031660E086E14E
:100CD0000E9485156BE372E083E895E0CF910C9458
:100CE0002011823061F41092900080939100109254
:100CF00095001092940088BB809371000FCE8330D2
:100D000069F41092A00082E08093A1001092A500E7
:100D10001092A40089BB8093720000CE8111FECD99
:100D20001092200182E080932101109225011092FF
:100D300024018ABB80937300F1CD85B5887F8560DF
:100D400085BD8BE987BD8FEF9FEFDC018093110498
:100D500090931204A0931304B093140480916E0036
:100D6000826080936E00A4CFFC01848195819C01F8
:100D70002F5F3F4F468157812417350748F4428142
:100D8000538135832483FA01E80FF91F60830895A6
:100D90000190F081E02D81E0808708955F926F924D
:100DA0007F928F929F92AF92BF92CF92DF92EF92FB
:100DB000FF920F931F93CF93DF9300D01F92CDB775
:100DC000DEB78C017B01C22E7EDCD82E882331F168
:100DD000C8015CDC873209F49FC024F4823209F434
:100DE0009BC0E9C08B3521F08B3709F452C0E3C0BA
:100DF00060E4C70104960E94CD0FD70111961C92A2
:100E00001E9213961C921E921297C11009C0F801EF
:100E1000EF5AFF4F85E090E091838083D12CBAC1D7
:100E2000F8011686C8014FDC8823C1F36DE5C801BF
:100E30000E94ED108111AEC1CA94D8011F966D9128
:100E40007C915097C7017ADA009731F4F801EF5A94
:100E5000FF4F84E090E0E0CF2C2D40E0BC01C801C2
:100E60009DDF8823D9F2C8012EDC8823B9F26DE515
:100E7000C8010E94ED1081118DC16CE2C8010E9471
:100E8000ED108111DACFF801EF5AFF4F83E090E0C7
:100E9000C3CF60E2C70104960E94CD0FF701118213
:100EA000108213821282CC2009F4B1CFD8011E9691
:100EB0001C92C80108DC882309F4B0CF6DE7C80193
:100EC0000E94ED10582E811165C1DD24D394CA947F
:100ED000D801ED91FC9111978281938113969C9397
:100EE0008E9312978481958122813381821B930B8B
:100EF00017969C938E93169715961C921E92149794
:100F0000892B09F4D086C801C1DB873209F466C099
:100F1000823209F0E1C062C0D801ED91FC911197D5
:100F20008281938113969C938E93129784819581ED
:100F300022813381821B930B17969C938E93169775
:100F400015961C921E921497892B11F481E08087CC
:100F5000C8010E94F60FD82E882309F45FCFF8014C
:100F6000A480B58080809180D40112960D911C914F
:100F700013971A830983BC82AB82BE016F5F7F4FD8
:100F8000C401A6D9009761F4F801EA0DFB1DCF0159
:100F90000196D40113969C938E931297108201C0F0
:100FA0008C0165E0C7010496F8D7F701118300832F
:100FB000B382A282EFC0C80169DB982E5801F1E12B
:100FC000AF0EB11CC12C8A2C7B2C892DF5D7882320
:100FD00009F4A3C08FE3C812D3C09FC0C8010E9408
:100FE000F60F882309F476C0C8016DDB882309F465
:100FF00071C06AE3C8010E94ED10811108C0F801B8
:10100000EF5AFF4F83E090E09183808363C0D80163
:101010001296ED91FC91139714968D919C911597D2
:10102000E80FF91F108212966D917C911397C701FA
:101030008BD7009711F0BC0130C0D80114968D9069
:101040009C9015976D907C90F301A280B380BA823A
:10105000A9829C828B82BE016F5F7F4FC30138D90A
:10106000009709F058C0F501E80DF91DCF01019670
:10107000D30113969C938E9312971082F801678583
:101080007089C7015BD9FC01892B09F43EC08481BA
:1010900080688483B782A682BF012C2D40E0C801FE
:1010A0007DDE8823B9F0C8010EDB882399F06DE757
:1010B000C8010E94ED1081110CC06CE2C8010E94B1
:1010C000ED10882309F49BCFC801FDDA811100CF10
:1010D00001C0582ED52C5EC0C801D8DAB82E6CD706
:1010E000882309F48CCFF80116866B2DC8013CDEED
:1010F000C801CCDAB82E60D78111F5CFD801ED91B7
:10110000FC918085882309F46FCFF801EF5AFF4FD7
:1011100084E090E079CF5C01B1CFF801EC0DF11DD6
:10112000118AD80151968C91843781F466E0C70109
:10113000049633D781E0D7018C93B4E0CB1651F1FC
:10114000F801EF5AFF4F82E090E066CE863651F408
:1011500066E0C701049621D7F7011082F5E0CF12AF
:10116000EFCF18C08E3621F484E0C812E9CF12C048
:10117000B701882D972D18D9882309F484CE0AC089
:10118000F8011686C394D5019D925D01C8017EDAEF
:10119000982E1BCF8D2D0F900F900F900F90DF91F9
:1011A000CF911F910F91FF90EF90DF90CF90BF9064
:1011B000AF909F908F907F906F905F900895DC012B
:1011C00014962C91149726FF13C0ED91FC91309743
:1011D00079F0CB01009751F025810197222341F04E
:1011E000B8E02B02E00DF11D1124F4CFCF010895DA
:1011F00080E090E00895CF92DF92EF92FF920F93FC
:101200001F93CF93DF936C017A018B01C0E0D0E094
:10121000CE15DF0581F0D8016D918D01D601ED91DC
:10122000FC910190F081E02DC6011995892B11F0F8
:101230002196EECF7E01C701DF91CF911F910F91D3
:10124000FF90EF90DF90CF900895FC01538D448D77
:10125000252F30E0842F90E0821B930B541710F061
:10126000CF96089501970895FC01918D828D98176E
:1012700061F0828DDF01A80FB11D5D968C91928D7A
:101280009F5F9F73928F90E008958FEF9FEF089577
:10129000FC01918D828D981731F0828DE80FF11D40
:1012A000858D90E008958FEF9FEF0895FC01918D5B
:1012B000228D892F90E0805C9F4F821B91098F7354
:1012C0009927089586EE94E0F1DF21E0892B09F457
:1012D00020E0822F089583E895E0E8DF21E0892B64
:1012E00009F420E0822F0895FC01848DDF01A80F0E
:1012F000B11DA35ABF4F2C91848D90E001968F733E
:101300009927848FA689B7892C93A089B1898C915C
:10131000837080648C93938D848D981306C00288AB
:10132000F389E02D80818F7D80830895EF92FF9275
:101330000F931F93CF93DF93EC0181E0888F9B8DF8
:101340008C8D981305C0E889F989808185FD25C0B9
:10135000F62E0B8D10E00F5F1F4F0F731127E02E3D
:101360008C8DE8120BC00FB607FCFACFE889F9891B
:10137000808185FFF5CFCE01B7DFF2CF8B8DFE01E7
:10138000E80FF11DE35AFF4FF0829FB7F8940B8FDF
:10139000EA89FB89808180620AC09FB7F894EE8950
:1013A000FF896083E889F989808183708064808304
:1013B0009FBF81E090E0DF91CF911F910F91FF904F
:1013C000EF900895CF93DF93EC01888D8823C1F0CF
:1013D000EA89FB89808185FD05C0A889B9898C913E
:1013E00086FD0EC00FB607FCF5CF808185FFF2CFDA
:1013F000A889B9898C9185FFEDCFCE0175DFE8CF43
:10140000DF91CF91089580E090E0892B19F063DFA0
:10141000811120C080E090E0892B19F053DF811109
:101420001CC080E090E0892B41F080E090E0892BA7
:1014300021F00E940000811113C080E090E0892B10
:10144000A1F080E090E0892B81F00E9400008111E2
:101450000AC008950E940000DDCF0E940000E1CF85
:101460000E940000EACF0C940000089585ED80935F
:10147000BC008091BC0084FDFCCF1092E50408956F
:1014800040914004262F30E0240F311D21323105D8
:10149000DCF42091E5042430C9F4FC0180E090E004
:1014A000861758F4309140042191DC01A05EBB4FB7
:1014B000A30FB11D2C930196F3CF80914004680FC8
:1014C0006093400480E0089581E0089582E00895EB
:1014D000089508950895E0917A0480917904E817B9
:1014E00030F4F0E0E156FB4F808190E008958FEFFB
:1014F0009FEF089590917A0480917904981750F4A1
:10150000E92FF0E0E156FB4F208130E09F5F9093A0
:101510007A0402C02FEF3FEFC9010895809179044A
:1015200090E020917A04821B91090895CF92DF9276
:10153000EF92FF920F931F93CF93DF937C01CB0128
:101540008A0120917B04222389F0EB016B01C40EF8
:10155000D51ECC15DD0561F06991D701ED91FC91A7
:101560000190F081E02DC7011995F3CF642F88DF3A
:10157000C801DF91CF911F910F91FF90EF90DF9005
:10158000CF900895CF93DF931F92CDB7DEB76983D5
:1015900020917B042223D1F020919E04203240F040
:1015A00021E030E0FC013383228380E090E014C02E
:1015B00080917C04E82FF0E0E358FB4F9981908301
:1015C0008F5F80937C0480939E0404C061E0CE0111
:1015D000019656DF81E090E00F90DF91CF91089562
:1015E000089580E090E00895CF92DF92EF92FF920D
:1015F0000F931F93CF93DF936C018B017A01EC0162
:10160000C45EDB4F888187FF04C0FB01118210821A
:1016100024C02CE02C9DC0012D9D900D112428810B
:10162000AC01420F511D27FD5A952091B00630E0C4
:101630004217530794F42881AC01420F511D27FD36
:101640005A959A01FA01EE0FFF1F2E0F3F1FF90165
:10165000E05EF94F208126FD19C088818F5F888365
:101660002CE02C9DC0012D9D900D11242881AC01F2
:10167000420F511D27FD5A952091B00630E04217C8
:101680005307BCF428812C3044F113C02881820F09
:10169000911D27FD9A95FC01EE0FFF1F8E0F9F1FD6
:1016A000FC01E05EF94F808160E08F730E94851538
:1016B000D4CFF80180819181049680349C4918F43C
:1016C00080E49CE904C0F801808191810496F701CF
:1016D000918380838FEF888345C0F80140815181D9
:1016E0002881BC01620F711D27FD7A959B01FB01CA
:1016F000EE0FFF1F2E0F3F1FF901E05EF94F218112
:101700003281240F351FF701318320832881AC01FA
:10171000420F511D27FD5A959A01FA01EE0FFF1F46
:101720002E0F3F1FF901E05EF94F208126FF1AC0FE
:101730002881820F911D27FD9A95FC01EE0FFF1F56
:101740008E0F9F1FFC01E05EF94F808161E08F7377
:10175000DF91CF911F910F91FF90EF90DF90CF908D
:101760000C948515DF91CF911F910F91FF90EF9011
:10177000DF90CF9008950F931F93CF93DF93EC01E9
:1017800088819981009729F02A813B8126173707A4
:1017900088F48B016F5F7F4F0E949721009761F063
:1017A000998388831B830A832C813D81232B11F429
:1017B000FC01108281E001C080E0DF91CF911F9198
:1017C0000F9108959091000289133DC0E6E5F1E084
:1017D000E4919FEF90930002E230C9F050F4EE23C1
:1017E00099F0E13081F590916F009D7F90936F00AB
:1017F0002AC0E43019F1E0F0E53029F5909173004A
:101800009D7F909373001FC010926E001CC090913A
:1018100070009D7F9093700091E09093B000909144
:10182000B100987F94609093B1001092B3000BC008
:10183000909171009D7F9093710005C0909172000E
:101840009D7F9093720060E00C9485151F920F921B
:101850000FB60F9211240BB60F922F933F934F9315
:101860005F936F937F938F939F93AF93BF93EF9308
:10187000FF938091180490911904A0911A04B091DB
:101880001B04892B8A2B8B2B51F190911704E0912B
:101890001504F091160480818927808380911804B3
:1018A00090911904A0911A04B0911B0418161906FE
:1018B0001A061B06BCF48091180490911904A0919B
:1018C0001A04B0911B040197A109B109809318046F
:1018D00090931904A0931A04B0931B0403C0809141
:1018E000000270DFFF91EF91BF91AF919F918F91B7
:1018F0007F916F915F914F913F912F910F900BBE10
:101900000F900FBE0F901F9018951F920F920FB659
:101910000F9211240BB60F922F933F934F935F9327
:101920006F937F938F939F93AF93BF93EF93FF93A7
:1019300086EE94E0D9DCFF91EF91BF91AF919F913A
:101940008F917F916F915F914F913F912F910F9068
:101950000BBE0F900FBE0F901F9018951F920F9205
:101960000FB60F9211240BB60F922F938F939F9364
:10197000EF93FF93E091F604F091F7048081E091FA
:10198000FC04F091FD0482FD12C090818091FF045F
:101990008F5F8F7320910005821751F0E091FF0453
:1019A000F0E0EA51FB4F958F8093FF0401C08081E6
:1019B000FF91EF919F918F912F910F900BBE0F9000
:1019C0000FBE0F901F9018951F920F920FB60F9297
:1019D00011240BB60F922F933F934F935F936F9306
:1019E0007F938F939F93AF93BF93EF93FF9383E87E
:1019F00095E07ADCFF91EF91BF91AF919F918F912C
:101A00007F916F915F914F913F912F910F900BBEFE
:101A10000F900FBE0F901F9018951F920F920FB648
:101A20000F9211240BB60F922F938F939F93EF93E6
:101A3000FF93E0919305F09194058081E0919905E1
:101A4000F0919A0582FD12C0908180919C058F5F74
:101A50008F7320919D05821751F0E0919C05F0E075
:101A6000ED57FA4F958F80939C0501C08081FF91BF
:101A7000EF919F918F912F910F900BBE0F900FBE02
:101A80000F901F90189550E0E7E1F2E021E0261753
:101A900030F43491430F511D2F5F3196F8CF6330EE
:101AA00038F09C0123703327232B11F44F5F5F4FD5
:101AB000BC016D5F7F4F7695679576956795EDE6EE
:101AC000F1E08E9F90018F9F300D9E9F300D11246D
:101AD000C9010197860F971F840F951F0895EF92F4
:101AE000FF920F931F93CF93DF93EC0188814A817C
:101AF000698190E0C8DF9C01A8E1B0E00E940A2063
:101B00002B817B018C01E20EF11C011D111DA8012E
:101B10009701ACE3B0E00E94D81F2C817B018C01BF
:101B2000E20EF11C011D111DA80197010E94D81F92
:101B30002D81620F711D811D911DDF91CF911F912C
:101B40000F91FF90EF900895FC019F012F5F3F4F91
:101B500080818F7E803211F4F901F7CF80E03191DE
:101B600090ED930F9A3050F4982F990F292F220F50
:101B7000220F920F9053832F890FF1CF08951F9258
:101B80000F920FB60F9211240BB60F922F933F9323
:101B90004F935F936F937F938F939F93AF93BF9375
:101BA000EF93FF938091B900887F803609F49CC041
:101BB00068F5883209F45BC090F4803109F454C0B0
:101BC00038F4882309F4F6C0883009F44DC0F5C014
:101BD000883109F44CC0803209F45DC0EEC0803415
:101BE00009F468C048F4803309F455C0883309F01B
:101BF000E4C08093E304D8C0803509F44FC0883531
:101C000009F45DC0883409F0D8C0D6C0883909F419
:101C1000C7C0A8F4883709F467C038F4883609F4D7
:101C200063C0803709F460C0C8C0883809F4B8C000
:101C3000803909F45FC0803809F0BFC05BC0803BC9
:101C400009F486C038F4803A09F466C0883A09F489
:101C50007FC0B3C0803C09F4A7C0883C09F4A4C08D
:101C6000883B09F48AC0A9C08091E00410C090911B
:101C7000E2048091E104981770F5E091E20481E0BC
:101C80008E0F8093E204F0E0E154FB4F808180935B
:101C9000BB0085EC86C08093E3048EC0E091E20433
:101CA00081E08E0F8093E2048091BB00F0E0E1546C
:101CB000FB4F80839091E2048091E1046EC0E0913B
:101CC000E20481E08E0F8093E2048091BB00F0E09B
:101CD000E154FB4F80838091E40481116DC081E069
:101CE0008093DF0484EA61C083E08093E50410926E
:101CF0006204CFCF80916204803208F051C0E0913D
:101D0000620481E08E0F809362048091BB00F0E05A
:101D1000EE5BFB4F8083BDCF85EC8093BC001092BF
:101D2000E50480916204803230F4E0916204F0E0D6
:101D3000EE5BFB4F10826091620470E0E0916304FF
:101D4000F091640482E494E019951092620435C025
:101D500084E08093E5041092410410924004E091E5
:101D60006504F0916604199580914004811105C0C5
:101D700081E08093400410922004E091410481E0CE
:101D80008E0F80934104F0E0E05EFB4F80818093F2
:101D9000BB009091410480914004981708F479CFDA
:101DA00085E88093BC0009C085EC8093BC0010924C
:101DB000E50403C01092E30459DBFF91EF91BF915A
:101DC000AF919F918F917F916F915F914F913F91D3
:101DD0002F910F900BBE0F900FBE0F901F90189574
:101DE0001F920F920FB60F9211240BB60F922F93E2
:101DF0003F934F935F936F937F938F939F93AF9393
:101E0000BF93EF93FF9348E251E064E271E080E01A
:101E100090E0EADBFF91EF91BF91AF919F918F919D
:101E20007F916F915F914F913F912F910F900BBEDA
:101E30000F900FBE0F901F9018951F920F920FB624
:101E40000F9211240BB60F922F933F934F935F93F2
:101E50006F937F938F939F93AF93BF93EF93FF9372
:101E600048EA50E064EA70E083E090E0BDDBFF9177
:101E7000EF91BF91AF919F918F917F916F915F9102
:101E80004F913F912F910F900BBE0F900FBE0F906F
:101E90001F9018951F920F920FB60F9211240BB638
:101EA0000F922F933F934F935F936F937F938F93F3
:101EB0009F93AF93BF93EF93FF9348E950E064E99A
:101EC00070E082E090E090DBFF91EF91BF91AF91E5
:101ED0009F918F917F916F915F914F913F912F9142
:101EE0000F900BBE0F900FBE0F901F9018951F9272
:101EF0000F920FB60F9211240BB60F922F933F93B0
:101F00004F935F936F937F938F939F93AF93BF9301
:101F1000EF93FF9348E850E064E870E081E090E0E0
:101F200063DBFF91EF91BF91AF919F918F917F9173
:101F30006F915F914F913F912F910F900BBE0F903A
:101F40000FBE0F901F9018950F931F93CF93DF93A1
:101F500061157105C9F08B01FC01C081D181209709
:101F600099F06E817F81C8010E948022892B79F0CF
:101F70008D81811103C0C0E0D0E0F1CF98E08902EB
:101F8000C00DD11D1124EBCF80E090E001C0CE0147
:101F9000DF91CF911F910F910895FC01908190786E
:101FA000692B60830895FC01248125FF02C0CCCFFA
:101FB000089580E090E00895982F80ED890F8A3091
:101FC00020F081EA890F8C3110F481E008958FEBC5
:101FD000890F8A31D0F39B32C1F381E09D3221F029
:101FE0009E3219F080E00895089508959F92AF926F
:101FF000BF92CF92DF92EF92FF920F931F93CF93F6
:10200000DF9300D01F921F92CDB7DEB78C010E94E4
:102010004603D82ED8011E961C92E12CF12C60EFBD
:10202000C62EC8010E944603F8011686D81609F488
:1020300052C08823C9F08C3509F048C0C8010E94FD
:102040004603882389F0853719F0E3E4F2E034C0D1
:10205000D8011E961C9254E0952EA12CB12CC801DB
:102060000E944603811106C0F801EF5AFF4F82E03B
:1020700090E00DC0813414F4805302C08F7D8753EB
:10208000803148F0F801EF5AFF4F83E090E09183F0
:10209000808380E091C0B50144E0660F771F4A95C8
:1020A000E1F75B01A82AF80116869A949110D7CF20
:1020B00020C0891729F0329690819111FACFE2CF92
:1020C00081818823F9F2D8011E961C92682FC801DD
:1020D0000E94B406A6CF0190F081E02D8085882370
:1020E00031F0F801EF5AFF4F84E090E0D0CF81E06B
:1020F00063C0C501985D8115944020F47501F3E03B
:10210000FF228FCFC5019C5DB5018115944078F405
:1021100073705701BA2CAA24BB0CBB0C6A297B290B
:10212000CB01A0E0B0E0BC01CD01019602C080E08F
:1021300090E0603871058105910548F21982262FDB
:102140002F7320682A83DC01CB0126E0B695A79582
:10215000979587952A95D1F78032910540F4682F9D
:10216000606C6B835E0184E0A80EB11C1BC0282F3D
:102170002F7320682B83BC0186E0769567958A953E
:10218000E1F76031710538F4606E6C835E01A5E0A3
:10219000AA0EB11C07C060686C83CD825E01B6E0F8
:1021A000AB0EB11CF50162915F01662309F439CFD2
:1021B000C8010E94B406F6CF0F900F900F900F90B9
:1021C0000F90DF91CF911F910F91FF90EF90DF90D3
:1021D000CF90BF90AF909F9008951F93CF93DF93C0
:1021E000EC01162F0E944603811303C01E8681E076
:1021F00001C080E0DF91CF911F910895DC01159619
:102200001C92159714961C92149713961C92139770
:102210001C9281E011968C93119711968C911197D5
:10222000E82FF0E0EA5EFD4FE491823009F4EF5FC1
:10223000E11102C08F5FEECF81E012968C9308957A
:102240006115710551F0FB0101900020E9F731970C
:10225000AF01461B570B0C94FB0880E090E00895FB
:1022600090E0FC01EF52FE4F2491FC01E557FE4F38
:102270008491882399F090E0880F991FFC01EF5812
:10228000FE4FA591B491FC01E95AFE4F85919491BE
:102290008FB7F894EC91E22BEC938FBF0895CF9217
:1022A000DF92EF92FF92DC01A03282E0B8070CF0DF
:1022B0003EC0B7FD06C0A53BB1052CF0A4EBB0E0D5
:1022C00002C0A0E0B0E08091B50628E830E06901E6
:1022D000C81AD10887FDD394CC0CDD1CCC0CDD1CB6
:1022E0000D2C000CEE08FF088091B60628E532E0C0
:1022F000281B310987FD3395220F331F220F331F0F
:10230000A901330F660B770B9A01AB012C193D091C
:102310004E095F090E94E21F24EB30E040E050E0EC
:102320000E94BC1FC20ED31EE41EF51ED601909162
:10233000B406903398F58091B50648E850E0481B04
:10234000510987FD5395440F551F440F551FA4177E
:10235000B5078CF08091B60628E532E0281B3109DC
:1023600087FD3395220F331F220F331FAD012A172C
:102370003B070CF4A90142505109440F551F2FB7D8
:10238000F894892F90E0FC01EE0FFF1F8E0F9F1F26
:10239000FC01E05EF94F528341832FBFFF90EF9025
:1023A000DF90CF900895982F8091E5048111FCCFA4
:1023B00081E08093E5048093E4042FEF2093E3040D
:1023C0001092E204290F2093E1048093E0048091AD
:1023D000E004806D8093E0048091DF04813061F43B
:1023E0001092DF048091E0048093BB008091BC00D8
:1023F00083FDF8CF85EC01C085EE8093BC00809111
:10240000E5048130E1F38091E204891710F49091A2
:10241000E204AFEBB4E0EFE9F4E080E0891721F0EB
:102420002D9121938F5FFACF0895282F30919E042C
:10243000313208F04AC08091E5048111FCCF9091BF
:102440009D0442E04093E5042093E4042FEF2093A1
:10245000E3041092E2043093E104EDE7F4E0AFEB23
:10246000B4E020E0321721F041914D932F5FFACF75
:102470001092E0042091E004990F922B9093E004D5
:102480009091DF04913061F41092DF049091E004A8
:102490009093BB009091BC0093FDF8CF95EC01C0E8
:1024A00095EE9093BC009091E5049230E1F3909109
:1024B000E3049F3F79F08091E304803241F0809102
:1024C000E304803331F084E005C081E003C082E0A2
:1024D00001C083E010927C0410929E0410927B0451
:1024E0000895CF92DF92EF92FF920F931F93CF93B5
:1024F000DF93CDB7DEB72C970FB6F894DEBF0FBED3
:10250000CDBF81E080937B0488E680939D04109288
:102510007C0410929E048091B1069091B206DC0179
:10252000ED91FC910190F081E02D60E0199581E042
:102530007CDF8093B306882321F0CE0101965EDE16
:1025400017C087E030DF10927A04809379048730D7
:10255000C9F084E08093B306CE0107964FDE86E093
:10256000FE013796DE01119601900D928A95E1F7F2
:1025700086E0FE013196DE01179601900D928A9554
:10258000E1F7AAC08091B1069091B206DC01ED910D
:10259000FC910284F385E02D19958F77982F929501
:1025A0009F700AEFF82E909FF00C11248091B106D5
:1025B0009091B206DC01ED91FC910284F385E02D4F
:1025C00019959C01332764E0359527956A95E1F7C5
:1025D000E82E029FE00C11248091B1069091B20682
:1025E000DC01ED91FC910284F385E02D199586FFC5
:1025F0000CC0182F1F71912F92959F70909F100DF6
:10260000112485FF0DC0145F0BC09C01332754E0DB
:10261000359527955A95E1F7182F029F100D112433
:102620008091B1069091B206DC01ED91FC9102849B
:10263000F385E02D19958091B1069091B206DC01E9
:10264000ED91FC910284F385E02D19959C013327CF
:1026500094E0359527959A95E1F73AEFC32ED82E59
:10266000C29ED00C11248091B1069091B206DC017B
:10267000ED91FC910284F385E02D1995082F80914E
:10268000B1069091B206DC01ED91FC910284F385D4
:10269000E02D19959C01332744E0359527954A95FF
:1026A000E1F7C29E800D1124282F30E0C90180532C
:1026B000984F07FF02C08C599F4F0F77805D8F8323
:1026C000802F82958F70B6E08B9F001911240887A8
:1026D000D9861A87EB86FC862F81388549855A85ED
:1026E0006B857C8580E090E02C960FB6F894DEBF79
:1026F0000FBECDBFDF91CF911F910F91FF90EF9053
:10270000DF90CF9008953FB7F8948091C4069091E0
:10271000C506A091C606B091C70626B5A89B05C000
:102720002F3F19F00196A11DB11D3FBFBA2FA92F50
:10273000982F8827820F911DA11DB11DBC01CD01CD
:1027400042E0660F771F881F991F4A95D1F70895B9
:10275000CF9391E090937B0498E690939D04109220
:102760007C0410929E04A091B106B091B206ED9146
:10277000FC9111970190F081E02D682FCD01199502
:1027800081E053DEC82F8093B306811119C081E028
:102790000ADE10927A0480937904813021F084E07B
:1027A0008093B3060EC08091B1069091B206DC0111
:1027B000ED91FC910284F385E02D1995C82F01C09D
:1027C000C0E08C2FCF9108951F93CF93DF93162FE6
:1027D00091E090937B0498E690939D0410927C0482
:1027E00010929E04C1EBD6E0A881B981ED91FC91D5
:1027F00011970190F081E02D682FCD011995888106
:102800009981DC01ED91FC910190F081E02D612F27
:10281000199581E00ADE8A83DF91CF911F91089597
:10282000FF920F931F93CF93DF93EC018FE090DF24
:10283000682F6F778FE0C8DF81E080937B0488E6A4
:1028400080939D0410927C0410929E048091B106A6
:102850009091B206DC01ED91FC910190F081E02DA8
:1028600060E01995A091B106B091B2062D811AE0F1
:10287000822F612F0E944E20682F660F860F880FCF
:10288000682F620FED91FC9111970190F081E02D7E
:10289000CD011995A091B106B091B2062C81822F7D
:1028A000612F0E944E20682F660F860F880F682FB9
:1028B000620FED91FC9111970190F081E02DCD0117
:1028C0001995A091B106B091B2062B81822F612F8C
:1028D0000E944E20682F660F860F880F682F620FA8
:1028E000ED91FC9111970190F081E02DCD011995AA
:1028F000888190E09C012053384F10E3120F14366A
:1029000020F01CEC120F00E801C000E04A81698150
:10291000BAD8069667E070E00E945A20682F8111AD
:1029200001C067E08091B1069091B206DC01ED91A3
:10293000FC910190F081E02D1995A091B106B09124
:10294000B2062A818AE0F82E822F6F2D0E944E2037
:10295000682F660F860F880F682F620FED91FC912C
:1029600011970190F081E02DCD0119952981A09159
:10297000B106B091B206822F6F2D0E944E20682FB3
:10298000660F860F880F820F682F602BED91FC91E8
:1029900011970190F081E02DCD011995A091B1061C
:1029A000B091B206812F6F2D0E944E20682F660FC6
:1029B000680F660F610FED91FC9111970190F08106
:1029C000E02DCD01199581E030DD8093B306DF91D4
:1029D000CF911F910F91FF900895CF93DF93BC018A
:1029E00086EE94E02DDCEC0169E672E086EE94E080
:1029F00027DC8C0F9D1FDF91CF910895CF92DF923E
:102A0000EF92FF920F931F93CF93DF93CDB7DEB773
:102A1000A1970FB6F894DEBF0FBECDBF282F30E0D0
:102A200040E050E019A28E010F5D1F4F8AE0C82ED2
:102A3000D12CE12CF12CCA01B901A70196010E9409
:102A4000E81F605DF80162938F0121153105410592
:102A5000510589F7BF0186EE94E0F2DB8C0169E64F
:102A600072E086EE94E0ECDB800F911FA1960FB62A
:102A7000F894DEBF0FBECDBFDF91CF911F910F91B4
:102A8000FF90EF90DF90CF9008952FB7F89480914A
:102A9000C8069091C906A091CA06B091CB062FBF77
:102AA00080938B0590938C05A0938D05B0938E0534
:102AB00083E895E00E94340997FF26C02FB7F89469
:102AC0008091C8069091C906A091CA06B091CB0624
:102AD0002FBF40918B0550918C0560918D057091B1
:102AE0008E05841B950BA60BB70B40918705509163
:102AF00088056091890570918A0584179507A60756
:102B0000B707B0F28FEF9FEF0895362F90E0FC01EA
:102B1000ED5DFD4F4491FC01EF52FE4F2491FC010D
:102B2000E557FE4F9491992309F46CC0442309F4AE
:102B300055C050E0FA013197E231F10508F04EC07E
:102B40008827EE58FF4F8F4F0C946E2080918000A5
:102B50008F7707C0809180008F7D03C080918000B7
:102B6000877F809380003AC084B58F7702C084B598
:102B70008F7D84BD33C08091B0008F7703C080917A
:102B8000B0008F7D8093B00029C0809190008F7736
:102B900007C0809190008F7D03C080919000877F57
:102BA000809390001BC08091A0008F7707C0809118
:102BB000A0008F7D03C08091A000877F8093A0003C
:102BC0000DC0809120018F7707C0809120018F7DFB
:102BD00003C080912001877F80932001E92FF0E0DE
:102BE000EE0FFF1FE95AFE4FA591B4919FB7F894DD
:102BF000311104C08C912095282302C0EC912E2B1A
:102C00002C939FBF08958F929F92AF92BF92CF92C5
:102C1000DF92EF92FF926B017C0175DD4B015C014D
:102C2000C114D104E104F104E9F06DDDDC01CB0154
:102C300088199909AA09BB09883E9340A105B105E5
:102C400078F321E0C21AD108E108F10888EE880E75
:102C500083E0981EA11CB11CC114D104E104F1044D
:102C600021F7DECFFF90EF90DF90CF90BF90AF9035
:102C70009F908F9008951F920F920FB60F9211247C
:102C80002F933F938F939F93AF93BF938091C806E9
:102C90009091C906A091CA06B091CB063091C306A7
:102CA00023E0230F2D3720F40196A11DB11D05C08F
:102CB00026E8230F0296A11DB11D2093C306809321
:102CC000C8069093C906A093CA06B093CB0680911C
:102CD000C4069091C506A091C606B091C70601969C
:102CE000A11DB11D8093C4069093C506A093C6068E
:102CF000B093C706BF91AF919F918F913F912F9154
:102D00000F900FBE0F901F901895CF93DF93CDB704
:102D1000DEB7C75CD1090FB6F894DEBF0FBECDBFDA
:102D2000789484B5826084BD84B5816084BD85B5A6
:102D3000826085BD85B5816085BD80916E008160B2
:102D400080936E0010928100809181008260809358
:102D5000810080918100816080938100809180005A
:102D60008160809380008091B10084608093B10085
:102D70008091B00081608093B0008091910082606A
:102D80008093910080919100816080939100809167
:102D900090008160809390008091A1008260809378
:102DA000A1008091A10081608093A1008091A0008A
:102DB00081608093A0008091210182608093210135
:102DC00080912101816080932101809120018160A7
:102DD0008093200180917A00846080937A008091B2
:102DE0007A00826080937A0080917A00816080937B
:102DF0007A0080917A00806880937A001092C100F6
:102E00008FEF9FEF909378048093770490937604EC
:102E10008093750490937404809373049093720468
:102E2000809371049093700480936F0490936E0468
:102E300080936D0490936C0480936B0490936A0468
:102E4000809369049093680480936704E0919305EC
:102E5000F091940592E09083E0918F05F0919005B8
:102E60001082E0919105F09192058FEC8083109291
:102E70009B05E0919705F091980516E01083E0918D
:102E80009505F0919605808180618083E09195059C
:102E9000F0919605808188608083E0919505F0919E
:102EA0009605808180688083E0919505F091960574
:102EB00080818F7D8083E091F604F091F704908308
:102EC000E091F604F091F7041082E091F204F091A1
:102ED000F3041082E091F404F091F50480E1808322
:102EE0001092FE04E091FA04F091FB041083E0914B
:102EF000F804F091F904808180618083E091F80406
:102F0000F091F904808188608083E091F804F09169
:102F1000F904808180688083E091F804F091F904DD
:102F200080818F7D808364E572E086EE94E088D9AD
:102F300080E692E052DD10927A04109279041092A9
:102F40007C0410929E041092E50481E08093E404D6
:102F50001092DF0461E084E1D8DD61E085E1D5DD38
:102F60008091B9008E7F8093B9008091B9008D7FE8
:102F70008093B90088E48093B80085E48093BC0016
:102F800088E69AE0909366048093650489E69AE067
:102F9000909364048093630485E262D986E160D9EA
:102FA00060E086E1B2DD8DE592E00E94A40DA0967E
:102FB0008FAFA097A1961FAFA19788E592E00E94DE
:102FC000A40DA2968FAFA29780E692E00E94A40D76
:102FD000A3968FAFA39783E692E00E94A40DA496D8
:102FE0008FAFA49786E692E00E94A40DA5968FAFBE
:102FF000A597CE01815A9F4F0E94FB0369E672E0BC
:1030000086EE94E01DD98FE0A3DB87FD04C080919C
:10301000B306882369F08091B306882309F4D1C2EE
:103020006CE672E086EE94E00BD98091B306E6DCA4
:103030008EE08EDB87FDCDC28091B3068111C9C2BF
:1030400050DA29833A834B835C836D837E83CE0180
:1030500001966C010E946F0D4B015C01CE01815AFB
:103060009F4F0E946F0D86169706A806B90640F47A
:103070008DEA92E0B2DCCE01815A9F4FD1DB24C0B1
:10308000C6010E946F0D4B015C01CE01815A9F4F1A
:103090000E946F0D681579058A059B0518F482EE6C
:1030A00092E011C0C6010E946F0D4B015C01CE0180
:1030B000815A9F4F0E946F0D86169706A806B90683
:1030C00019F485E193E089DC8FE042DB682F677FAC
:1030D0008FE07ADB8EE03CDB8C7B682F64608EE0D7
:1030E00073DB5E019FE0A90EB11CEE24EA94FE2C76
:1030F00083E895E00E945609181619060CF0D6C10F
:10310000CE53DF4F19821882C25CD040CC53DF4FC0
:1031100019821882C45CD040CA53DF4F19821882CA
:10312000C65CD04060E070E0CE018E539F4F0E949D
:10313000BB0BCE53DF4F28813981C25CD040811157
:1031400019C02115310519F0C9010E940E21CE5375
:10315000DF4F19821882C25CD040CA53DF4F1982F8
:103160001882C65CD040CC53DF4F19821882C45CF1
:10317000D0400BC0CA53DF4F19821882C65CD040C2
:1031800063E572E0C9010E9489227FDC97FD2DC0B2
:103190008A30910551F189831A82CA53DF4F088121
:1031A0001981C65CD0400F5F1F4FB801CE018E530E
:1031B0009F4F0E94BB0B882341F3CE53DF4F2881E2
:1031C0003981C25CD040CA53DF4F88819981C65C87
:1031D000D040B601820F931F0E948922CA53DF4F4D
:1031E00019830883C65CD040D0CFCA53DF4F888193
:1031F0009981C65CD040892B71F065E573E0CE53B0
:10320000DF4F88819981C25CD0400E948022892B47
:1032100011F40E944004CA53DF4F08811981C65C33
:10322000D0400115110589F16EE573E0CE53DF4FF3
:1032300088819981C25CD0400E948022892B29F527
:10324000F0927804E0927704F0927604E0927504AC
:10325000F0927404E0927304F0927204E0927104AC
:10326000F0927004E0926F04F0926E04E0926D04AC
:10327000F0926C04E0926B04F0926A04E0926904AC
:10328000F0926804E09267040AC1BA82A982BC8203
:10329000AB828FE590E08C0F9D1F9E838D83988776
:1032A0008F8319861E86CE53DF4F88819981C25C39
:1032B000D040C654DF4FD982C882CA5BD04028E0D4
:1032C000FE01E654FF4FDE01AE54BF4F01900D9258
:1032D0002A95E1F7CE54DF4FD982C882C25BD04035
:1032E00028E0FE01EE54FF4FDE01A15ABF4F0190CE
:1032F0000D922A95E1F7A8961FAEA897AA969FAFC0
:103300008EAFAA97080F191FAC961FAF0EAFAC97E0
:10331000AE961FAEAE97E096DFAECEAEE097C0554C
:10332000DF4F19821882C05BD0402AE040E0BE0126
:10333000665F7F4FCE01815A9F4F0E94CE06C055D7
:10334000DF4F08811981C05BD0400115110509F0DC
:103350004AC1AD968FADAD97882331F08E8583FF3E
:1033600003C003E010E002C000E010E00115110509
:1033700009F039C16CE673E0CE010A960E94D30FC2
:10338000009721F060E070E00E94DF080E9489034E
:1033900090937604809375046CE673E0CE010A96F0
:1033A0000E94D30F009721F061E070E00E94DF08D7
:1033B0000E94890390937404809373046EE572E015
:1033C000CE010A960E94D30F009721F060E070E0D2
:1033D0000E94DF080E948903909372048093710415
:1033E0006EE572E0CE010A960E94D30F009721F09D
:1033F00061E070E00E94DF080E94890390937004EE
:1034000080936F046EE673E0CE010A960E94D30F9C
:10341000009721F060E070E00E94DF080E948903BD
:1034200090936E0480936D046EE673E0CE010A966D
:103430000E94D30F009721F061E070E00E94DF0846
:103440000E94890390936C0480936B0460E773E09F
:10345000CE010A960E94D30F009721F060E070E041
:103460000E94DF080E94890390936A048093690494
:1034700060E773E0CE010A960E94D30F009721F017
:1034800061E070E00E94DF080E9489039093680465
:103490008093670468EE73E080E090E0B4DBCE5385
:1034A000DF4F88819981C25CD040B8D68FE050D977
:1034B00087FD04C08091B306882371F08091B30624
:1034C000882309F49FC06CE672E086EE94E00E94C7
:1034D00020118091B30692DA04D829833A834B8372
:1034E0005C836D837E83C6010E94FB0369E672E004
:1034F00086EE94E00E94201140917504509176046C
:103500004F3F9FEF590709F454C08D8190E02091FF
:103510007704309178042F5F3F4F2817390721F443
:10352000F0927804E09277042C8130E04217530740
:1035300039F440917304509174048417950751F144
:1035400040917104509172042417350739F4409169
:103550006F045091700484179507E1F040916D0459
:1035600050916E042417350739F440916B04509143
:103570006C048417950771F04091690450916A04B6
:1035800024173507B1F4209167043091680482173D
:10359000930779F420917704309178048217930788
:1035A00041F00E9440048D8190E0909378048093D4
:1035B000770468E873E180E090E025DB0E94030A6D
:1035C00097CD88E892E009DACE01815A9F4F28D939
:1035D0002FCD82E793E001DA8EE0BAD8682F6F77BB
:1035E0008EE0F2D82DCD6DE973E086EE94E00E9476
:1035F0002011000F111FF801E55FFD4F80819181BF
:10360000ECD9B8CE88E892E0E8D966CF1092E90408
:103610001092E80488EE93E0A0E0B0E08093EA0422
:103620009093EB04A093EC04B093ED042BE132E013
:103630003093E7042093E6044DEC50E05093F304FC
:103640004093F2044CEC50E05093F5044093F404A2
:1036500048EC50E05093F7044093F60449EC50E0F6
:103660005093F9044093F8044AEC50E05093FB0463
:103670004093FA044EEC50E05093FD044093FC0458
:103680001092FF041092000510920105109202059D
:103690001092860510928505809387059093880582
:1036A000A0938905B0938A05309384052093830500
:1036B00025EC30E03093900520938F0524EC30E02A
:1036C000309392052093910520EC30E030939405DF
:1036D0002093930521EC30E03093960520939505D7
:1036E00022EC30E0309398052093970526EC30E0EB
:1036F00030939A052093990510929C0510929D0590
:1037000010929E0510929F051092BA061092B9066B
:103710008093BB069093BC06A093BD06B093BE06F3
:103720008DE292E09093B8068093B7068091B00640
:103730008033A0F491E0980F9093B0068093B40684
:1037400090E0FC01EE0FFF1F8E0F9F1FFC01E05E5B
:10375000F94F88EB9BE09283818303C08FEF8093C6
:10376000B40687EB96E09093B2068093B106109270
:10377000B30608950F931F93CF93DF93CDB7DEB7B2
:103780002E970FB6F894DEBF0FBECDBF0E891F89EE
:10379000888D998D2EE02C831A83098397FF02C0B0
:1037A00080E090E801979E838D83AE01445E5F4F79
:1037B0006A8D7B8DCE01019619D04D815E8157FDBA
:1037C0000AC02F813885421753070CF49A01F8017B
:1037D000E20FF31F10822E960FB6F894DEBF0FBED5
:1037E000CDBFDF91CF911F910F9108952F923F92FE
:1037F0004F925F926F927F928F929F92AF92BF9201
:10380000CF92DF92EF92FF920F931F93CF93DF93AC
:10381000CDB7DEB72B970FB6F894DEBF0FBECDBF86
:103820006C017B018A01FC0117821682838181FF72
:10383000BFC1CE0101963C01F6019381F70193FDD2
:10384000859193FF81917F01882309F4ADC1853271
:1038500039F493FD859193FF81917F01853221F4A5
:10386000B60190E0D6D1E8CF912C212C312CFFE18C
:10387000F315D8F08B3279F038F4803279F0833256
:10388000A1F4232D20611DC08D3261F0803369F4D5
:10389000232D216016C0832D8260382EE32DE46035
:1038A0003E2E2AC0F32DF8601DC037FC2DC020ED40
:1038B000280F2A3040F08E32B9F436FC75C1232D22
:1038C0002064322E19C036FE06C08AE0989E200D74
:1038D0001124922E11C0EAE02E9E200D1124222EDA
:1038E000F32DF0623F2E08C08C3621F4832D8068C2
:1038F000382E02C0883641F4F70193FD859193FF7D
:1039000081917F018111B3CF982F9F7D9554933082
:1039100028F40C5F1F4F9FE399830DC0833631F06D
:10392000833771F0833509F055C020C0F8018081DC
:1039300089830E5F1F4F88248394912C530112C0FA
:103940002801F2E04F0E511CF801A080B18036FE34
:1039500003C0692D70E002C06FEF7FEFC5014ED14B
:103960004C018201F32DFF773F2E15C0280122E084
:10397000420E511CF801A080B18036FE03C0692DB3
:1039800070E002C06FEF7FEFC5012DD14C01F32D28
:10399000F0683F2E820133FC19C0822D90E088161A
:1039A0009906A0F4B60180E290E033D12A94F5CFD5
:1039B000F50137FC859137FE81915F01B60190E0FA
:1039C00028D121102A9421E0821A910881149104AF
:1039D00079F7E1C0843611F0893639F5F80137FE00
:1039E00007C060817181828193810C5F1F4F08C085
:1039F00060817181072E000C880B990B0E5F1F4FA1
:103A0000F32DFF763F2E97FF09C090958095709516
:103A100061957F4F8F4F9F4FF0683F2E2AE030E037
:103A2000A30133D1882E861844C0853731F4232D65
:103A30002F7EB22E2AE030E025C0932D997FB92E3B
:103A40008F36C1F018F4883579F0AEC0803719F0A0
:103A5000883721F0A9C0E92FE061BE2EB4FE0DC069
:103A6000FB2DF460BF2E09C034FE0AC0292F26604A
:103A7000B22E06C028E030E005C020E130E002C0F0
:103A800020E132E0F801B7FE07C0608171818281D8
:103A900093810C5F1F4F06C06081718180E090E0D0
:103AA0000E5F1F4FA301F1D0882E8618FB2DFF77E4
:103AB0003F2E36FE0DC0232D2E7FA22E891458F4E2
:103AC00034FE0BC032FC09C0832D8E7EA82E05C0AB
:103AD000B82CA32C03C0B82C01C0B92CA4FE0FC075
:103AE000FE01E80DF11D8081803321F49A2D997E2D
:103AF000A92E09C0A2FE06C0B394B39404C08A2DB7
:103B0000867809F0B394A3FC10C0A0FE06C0B214DE
:103B100080F4280C922C9B180DC0B21458F4B601F6
:103B200080E290E076D0B394F8CFB21418F42B185A
:103B300002C0982C212CA4FE0FC0B60180E390E0B7
:103B400068D0A2FE16C0A1FC03C088E790E002C0C6
:103B500088E590E0B6010CC08A2D867851F0A1FE70
:103B600002C08BE201C080E2A7FC8DE2B60190E0CA
:103B700050D0891430F4B60180E390E04AD09A9492
:103B8000F8CF8A94F301E80DF11D8081B60190E031
:103B900040D08110F6CF222009F44ECEB60180E24B
:103BA00090E037D02A94F7CFF6018681978102C042
:103BB0008FEF9FEF2B960FB6F894DEBF0FBECDBFF1
:103BC000DF91CF911F910F91FF90EF90DF90CF90F9
:103BD000BF90AF909F908F907F906F905F904F902D
:103BE0003F902F900895FC010590615070400110A6
:103BF000D8F7809590958E0F9F1F0895FC01615016
:103C0000704001900110D8F7809590958E0F9F1FFE
:103C100008950F931F93CF93DF93FB01238121FD21
:103C200003C08FEF9FEF2CC022FF16C04681578143
:103C3000248135814217530744F4A081B1819D014D
:103C40002F5F3F4F318320838C93268137812F5FF5
:103C50003F4F3783268314C08B01EC01FB010084A6
:103C6000F185E02D1995892BE1F6D80116968D91F5
:103C70009C911797019617969C938E931697CE0159
:103C8000DF91CF911F910F910895FA01AA27283053
:103C900051F1203181F1E8946F936E7F6E5F7F4F19
:103CA0008F4F9F4FAF4FB1E03ED0B4E03CD0670F95
:103CB000781F891F9A1FA11D680F791F8A1F911DE8
:103CC000A11D6A0F711D811D911DA11D20D009F438
:103CD00068943F912AE0269F11243019305D31937A
:103CE000DEF6CF010895462F4770405D4193B3E063
:103CF0000FD0C9F7F6CF462F4F70405D4A3318F00A
:103D0000495D31FD4052419302D0A9F7EACFB4E0BA
:103D1000A6959795879577956795BA95C9F7009772
:103D20006105710508959B01AC010A2E0694579513
:103D3000479537952795BA95C9F7620F731F841F6A
:103D4000951FA01D089540D008F481E00895E894DF
:103D500009C097FB3EF490958095709561957F4FD3
:103D60008F4F9F4F9923A9F0F92F96E9BB27939581
:103D7000F695879577956795B795F111F8CFFAF491
:103D8000BB0F11F460FF1BC06F5F7F4F8F4F9F4FC2
:103D900016C0882311F096E911C0772321F09EE820
:103DA000872F762F05C0662371F096E8862F70E086
:103DB00060E02AF09A95660F771F881FDAF7880F60
:103DC0009695879597F90895990F0008550FAA0BB6
:103DD000E0E8FEEF16161706E807F907C0F012161E
:103DE0001306E407F50798F0621B730B840B950B21
:103DF00039F40A2661F0232B242B252B21F4089576
:103E00000A2609F4A140A6958FEF811D811D089512
:103E10000BD078C069D028F06ED018F0952309F047
:103E20005AC05FC01124A2C07ED0A0F3959FD1F3E9
:103E3000950F50E0551F629FF001729FBB27F00D58
:103E4000B11D639FAA27F00DB11DAA1F649F6627AD
:103E5000B00DA11D661F829F2227B00DA11D621FFC
:103E6000739FB00DA11D621F839FA00D611D221FB6
:103E7000749F3327A00D611D231F849F600D211D9A
:103E8000822F762F6A2F11249F5750408AF0E1F03D
:103E900088234AF0EE0FFF1FBB1F661F771F881F86
:103EA00091505040A9F79E3F510570F014C05EC07C
:103EB0005F3FECF3983EDCF3869577956795B79571
:103EC000F795E7959F5FC1F7FE2B880F911D96959B
:103ED000879597F9089597F99F6780E870E060E00B
:103EE00008959FEF80EC089500240A941616170693
:103EF00018060906089500240A94121613061406DB
:103F000005060895092E0394000C11F4882352F03D
:103F1000BB0F40F4BF2B11F460FF04C06F5F7F4FF5
:103F20008F4F9F4F089557FD9058440F551F59F0DC
:103F30005F3F71F04795880F97FB991F61F09F3F96
:103F400079F087950895121613061406551FF2CFBF
:103F50004695F1DF08C0161617061806991FF1CF0F
:103F600086957105610508940895E894BB27662736
:103F70007727CB0197F90895052E97FB16F4009447
:103F80000FD057FD05D024D007FC02D046F408C05E
:103F900050954095309521953F4F4F4F5F4F089575
:103FA00090958095709561957F4F8F4F9F4F0895A5
:103FB00031D0A59F900DB49F900DA49F800D911DB1
:103FC00011240895B7FFF4CFF3DF821B930B0895FC
:103FD000A1E21A2EAA1BBB1BFD010DC0AA1FBB1F0D
:103FE000EE1FFF1FA217B307E407F50720F0A21B7F
:103FF000B30BE40BF50B661F771F881F991F1A94EC
:1040000069F760957095809590959B01AC01BD0115
:10401000CF010895A29FB001B39FC001A39F700D6F
:10402000811D1124911DB29F700D811D1124911DC0
:10403000089504D06894B11199CF08957CDF88F079
:104040009F5790F0B92F9927B751A0F0D1F0660F84
:10405000771F881F991F1AF0BA95C9F712C0B1309F
:1040600081F083DFB1E0089580CF672F782F882714
:10407000B85F39F0B93FCCF3869577956795B395DE
:10408000D9F73EF490958095709561957F4F8F4F4D
:104090009F4F089599DE08F48FEF0895991B79E0FA
:1040A00004C0991F961708F0961B881F7A95C9F7C8
:1040B00080950895AA1BBB1B51E107C0AA1FBB1F17
:1040C000A617B70710F0A61BB70B881F991F5A95A4
:1040D000A9F780959095BC01CD010895EE0FFF1FC3
:1040E000881F8BBF0790F691E02D19940F931F93B3
:1040F000CF93DF938230910510F482E090E0E0915D
:10410000CE06F091CF0620E030E0A0E0B0E030979E
:1041100019F1408151810281138148175907C8F074
:104120008417950769F4109731F012960C93129743
:1041300013961C9327C00093CE061093CF0622C07F
:104140002115310519F04217530718F49A01BD01E2
:10415000EF01DF01F801DBCF21153105F9F0281B54
:10416000390B2430310580F48A819B8161157105FA
:1041700021F0FB019383828304C09093CF06809348
:10418000CE06FE01329644C0FE01E20FF31F81937A
:10419000919322503109398328833AC02091CC066B
:1041A0003091CD06232B41F420910302309104027B
:1041B0003093CD062093CC0620910102309102026B
:1041C0002115310541F42DB73EB7409105025091BC
:1041D0000602241B350BE091CC06F091CD06E217C8
:1041E000F307A0F42E1B3F0B2817390778F0AC011A
:1041F0004E5F5F4F2417350748F04E0F5F1F5093F7
:10420000CD064093CC068193919302C0E0E0F0E0AC
:10421000CF01DF91CF911F910F910895CF93DF933D
:10422000009709F481C0FC01329713821282A09199
:10423000CE06B091CF06109781F420813181820F94
:10424000931F2091CC063091CD062817390751F5E0
:10425000F093CD06E093CC0667C0ED0120E030E09E
:10426000CE17DF0740F44A815B819E01411551055D
:10427000F1F0EA01F5CFD383C28340815181840FED
:10428000951FC817D90759F488819981840F951F04
:104290000296918380838A819B81938382832115F7
:1042A000310529F4F093CF06E093CE063DC0E90135
:1042B000FB83EA8349915991C40FD51FEC17FD0781
:1042C00061F480819181840F951F0296E9019983A1
:1042D0008883828193819B838A83E0E0F0E0129659
:1042E0008D919C911397009719F0FD01DC01F7CF98
:1042F0008D919C9111979D012E5F3F4F820F931FCF
:104300002091CC063091CD062817390769F43097F3
:1043100029F41092CF061092CE0602C013821282A8
:10432000B093CD06A093CC06DF91CF9108956F9204
:104330007F928F929F92AF92BF92CF92DF92EF9235
:10434000FF920F931F93CF93DF93009781F4CB01DC
:10435000DF91CF911F910F91FF90EF90DF90CF9061
:10436000BF90AF909F908F907F906F90BFCEFC01D9
:10437000E60FF71F9C0122503109E217F30708F4FA
:10438000A5C0EC01D9010D911C91119706171707D3
:10439000A8F00530110508F497C0C80104978617E6
:1043A000970708F491C002501109061B170B0193DF
:1043B00011936D937C93CF0131DF86C05B01A01A0E
:1043C000B10A4C01800E911EA091CE06B091CF068D
:1043D000612C712CE12CF12C109709F446C08D91C1
:1043E0009C911197A815B905B1F56C0142E0C40E76
:1043F000D11CCA14DB0478F14C018A189B086401B3
:1044000042E0C40ED11C1296BC9012971396AC9148
:10441000B5E0CB16D10440F0B282A38391828082B2
:10442000D9016D937C9309C00E5F1F4F800F911FC0
:10443000F90191838083EB2DFA2FE114F10431F01F
:10444000D7011396FC93EE9312973EC0F093CF06DC
:10445000E093CE0639C06816790608F43C017D0168
:1044600012960D90BC91A02DB7CF8091CC06909163
:10447000CD0688169906E1F466167706C8F4809191
:10448000010290910202009741F48DB79EB74091CE
:10449000050250910602841B950BE817F907B0F44A
:1044A000F093CD06E093CC06F901718360830CC0D4
:1044B000CB011CDE7C01009749F0A801BE0117D09A
:1044C000CE01ACDEC70104C0CE0102C080E090E0A6
:1044D000DF91CF911F910F91FF90EF90DF90CF90E0
:1044E000BF90AF909F908F907F906F900895FB0149
:1044F000DC0102C001900D9241505040D8F7089560
:10450000FB01DC018D91019080190110D9F3990B09
:104510000895FB01DC0101900D920020E1F7089560
:04452000F894FFCF3D
:10452400FF0000D006800016002500C003C303CEA0
:1045340003DE03EB03F403000000009609FB0825E7
:1045440009E20956093409480900000000C20A9624
:104554000AF10A6A0A8E0A7A0A6B0A7065745F663F
:104564006564002F2F22225C5C6208660C6E0A725E
:104574000D7409004A756E20323320323032320015
:1045840032303A34333A3339000D0A00525443205E
:10459400636F6D6D756E69636174696F6E732065A9
:1045A40072726F72203D2000525443206C6F7374FA
:1045B40020636F6E666964656E636520696E20743E
:1045C4006865204461746554696D652100525443E3
:1045D400206973206F6C646572207468616E206357
:1045E4006F6D70696C652074696D65212020285594
:1045F40070646174696E67204461746554696D65A3
:104604002900525443206973206E657765722074C3
:1046140068616E20636F6D70696C652074696D6587
:104624002E20287468697320697320657870656327
:1046340074656429005254432069732074686520AA
:1046440073616D6520617320636F6D70696C6520A3
:1046540074696D652120286E6F74206578706563B8
:104664007465642062757420616C6C2069732066C3
:10467400696E652900666565645F6E6F77006469BD
:1046840073636172645F6D65616C73003100330044
:10469400340052544320776173206E6F7420616339
:1046A400746976656C792072756E6E696E672C20FC
:1046B4007374617274696E67206E6F7700646573DA
:1046C400657269616C697A654A736F6E2829206620
:1046D40061696C6564207769746820636F64650040
:1046E4004F6B00456D707479496E70757400496E36
:1046F400636F6D706C657465496E70757400496E96
:1047040076616C6964496E707574004E6F4D656DA9
:0C4714006F727900546F6F44656570008F
:020000023000CC
:10E000000D9489F10D94B2F10D94B2F10D94B2F129
:10E010000D94B2F10D94B2F10D94B2F10D94B2F1F0
:10E020000D94B2F10D94B2F10D94B2F10D94B2F1E0
:10E030000D94B2F10D94B2F10D94B2F10D94B2F1D0
:10E040000D94B2F10D94B2F10D94B2F10D94B2F1C0
:10E050000D94B2F10D94B2F10D94B2F10D94B2F1B0
:10E060000D94B2F10D94B2F10D94B2F10D94B2F1A0
:10E070000D94B2F10D94B2F10D94B2F10D94B2F190
:10E080000D94B2F10D94B2F10D94B2F10D94B2F180
:10E090000D94B2F10D94B2F10D94B2F10D94B2F170
:10E0A0000D94B2F10D94B2F10D94B2F10D94B2F160
:10E0B0000D94B2F10D94B2F10D94B2F10D94B2F150
:10E0C0000D94B2F10D94B2F10D94B2F10D94B2F140
:10E0D0000D94B2F10D94B2F10D94B2F10D94B2F130
:10E0E0000D94B2F141546D656761323536300041AF
:10E0F000726475696E6F206578706C6F72657220DE
:10E1000073746B3530305632206279204D4C530099
:10E11000426F6F746C6F616465723E004875683F52
:10E1200000436F6D70696C6564206F6E203D200048
:10E130004350552054797065202020203D20005FF9
:10E140005F4156525F415243485F5F3D2000415658
:10E1500052204C696243205665723D20004743437C
:10E160002056657273696F6E203D20004350552024
:10E1700049442020202020203D20004C6F7720663D
:10E18000757365202020203D20004869676820665F
:10E190007573652020203D200045787420667573D6
:10E1A00065202020203D20004C6F636B2066757336
:10E1B000652020203D20004D617220203720323024
:10E1C000313300312E362E3800342E332E350056A2
:10E1D00023202020414444522020206F7020636F70
:10E1E00064652020202020696E73747275637469E1
:10E1F0006F6E2061646472202020496E74657272B3
:10E20000757074006E6F20766563746F7200726A49
:10E210006D702020006A6D70200057686174207056
:10E220006F72743A00506F7274206E6F7420737541
:10E2300070706F72746564004D7573742062652030
:10E2400061206C6574746572002000577269747483
:10E25000696E672045450052656164696E672045B7
:10E26000450045452065727220636E743D00504F35
:10E27000525400303D5A65726F2061646472003FF1
:10E280003D43505520737461747300403D454550C3
:10E29000524F4D207465737400423D426C696E6B41
:10E2A000204C454400453D44756D70204545505215
:10E2B0004F4D00463D44756D7020464C415348001B
:10E2C000483D48656C70004C3D4C69737420492F83
:10E2D0004F20506F72747300513D51756974005234
:10E2E0003D44756D702052414D00563D73686F7707
:10E2F00020696E7465727275707420566563746FF0
:10E30000727300593D506F727420626C696E6B00BD
:10E310002A0011241FBECFEFD1E2DEBFCDBF01E046
:10E320000CBF12E0A0E0B2E0EEE1FDEF03E00BBFB6
:10E3300002C007900D92A030B107D9F712E0A0E01B
:10E34000B2E001C01D92AE30B107E1F70F9460F367
:10E350000D948DFE01E20EBF0FEF0DBF11241FBE05
:10E360000D9460F30D9400F020E030E040ED57E0B4
:10E3700005C0FA013197F1F72F5F3F4F2817390792
:10E38000C0F308959C01260F311DC901A0E0B0E043
:10E390002F5F3F4FABBFFC018791882361F08093D3
:10E3A000C6008091C00086FFFCCF8091C0008064D1
:10E3B0008093C000EACF08958DE08093C6008091DD
:10E3C000C00086FFFCCF8091C00080648093C000B5
:10E3D0008AE08093C6008091C00086FFFCCF8091C8
:10E3E000C00080648093C00008950F94C2F10F9420
:10E3F000DCF10895FC019081992359F09093C600B7
:10E400008091C00086FFFCCF8091C0008064809323
:10E41000C0003196992379F70895282F982F929567
:10E420009F70892F805D8A3308F0895F8093C600D2
:10E430008091C00086FFFCCF8091C00080648093F3
:10E44000C000822F8F70982F905D9A3308F0995FEB
:10E450009093C6008091C00086FFFCCF8091C000E1
:10E4600080648093C00008959C01FB01853691056E
:10E470001CF46330710594F0C90164E670E00F94F8
:10E480002EFE605D7F4F6093C6008091C00086FFC6
:10E49000FCCF8091C00080648093C0002B30310598
:10E4A00014F43297B4F0C90164E670E00F942EFEC4
:10E4B0006AE070E00F942EFE605D7F4F6093C600AF
:10E4C0008091C00086FFFCCF8091C0008064809363
:10E4D000C000C9016AE070E00F942EFEC0968093E0
:10E4E000C6008091C00086FFFCCF8091C000806490
:10E4F0008093C00008951F93182F8EE692EE60E07F
:10E500000F94C2F11093C6008091C00086FFFCCF2B
:10E510008091C00080648093C0000F94DCF11F9153
:10E5200008952F923F924F925F926F927F928F92B7
:10E530009F92AF92BF92CF92DF92EF92FF920F9392
:10E540001F93DF93CF93CDB7DEB762970FB6F894E2
:10E55000DEBF0FBECDBF382E622ECA01DB015C01CB
:10E560006D01772420E2222E2E010894411C511CBB
:10E570008BC081E0A81680E0B80681E0C80680E084
:10E58000D80628F0C601AA27BB270F940DF2BB2797
:10E59000AD2D9C2D8B2D0F940DF28A2D0F940DF225
:10E5A0002092C6008091C00086FFFCCF8091C00001
:10E5B00080648093C0009DE29093C6008091C0006B
:10E5C00086FFFCCF8091C00080648093C0002092C1
:10E5D000C6008091C00086FFFCCF8091C00080649F
:10E5E0008093C00019828601750188249924A1E0D6
:10E5F0003A1651F03A1620F0B2E03B1661F409C029
:10E600000BBFF701779007C0C7010F9477FE782EF4
:10E6100002C0F7017080872D0F940DF22092C60082
:10E620008091C00086FFFCCF8091C0008064809301
:10E63000C000872D8052F401EF70F0708F3520F408
:10E64000E40DF51D708204C0E40DF51D8EE280839B
:10E650000894E11CF11C011D111D0894811C911CE2
:10E6600090E18916910409F0C2CF80E190E0A0E02A
:10E67000B0E0A80EB91ECA1EDB1E198AC2010F9493
:10E68000FAF10F94DCF16A94662009F072CF629679
:10E690000FB6F894DEBF0FBECDBFCF91DF911F91B3
:10E6A0000F91FF90EF90DF90CF90BF90AF909F9031
:10E6B0008F907F906F905F904F903F902F90089534
:10E6C0002F923F924F925F926F927F928F929F9282
:10E6D000AF92BF92CF92DF92EF92FF920F931F9370
:10E6E000DF93CF93CDB7DEB7CD53D1400FB6F894BB
:10E6F000DEBF0FBECDBF01E20EBF0FEF0DBF94B75F
:10E70000F894A89514BE80916000886180936000A1
:10E7100010926000789493FF05C0E0910002F091A0
:10E7200001021995279A2F9A8091C00082608093E8
:10E73000C00080E18093C40088E18093C1000000A4
:10E74000EE24FF24870144E0A42EB12CCC24DD2448
:10E7500024C0C5010197F1F70894E11CF11C011DCB
:10E76000111D21E2E2162EE4F20620E0020720E06D
:10E77000120718F031E0C32ED12CC801B70127ECE5
:10E780003BE140E050E00F9441FE611571058105C9
:10E79000910519F485B1805885B98091C00087FD35
:10E7A00003C0C114D104A9F2A6014F5F5F4FC25E3E
:10E7B000DE4F59834883CE51D140C25EDE4F8881FF
:10E7C0009981CE51D140019711F00D9410FEC05D9A
:10E7D000DE4F19821882C053D14060E0C15DDE4F28
:10E7E0001882CF52D14088249924C35DDE4F19820C
:10E7F0001882CD52D140C05EDE4F188219821A8233
:10E800001B82C052D140CE5CDE4F188219821A8220
:10E810001B82C253D140EE24FF2487010BBFF701B6
:10E8200007911691C45CDE4F19830883CC53D14005
:10E830000D940BFEC25EDE4F28813981CE51D1404E
:10E840002130310509F52091C600C25EDE4F1982E4
:10E850001882CE51D14022C02F5F3F4F4F4F5F4FA4
:10E86000213082E138078AE7480780E0580780F0C6
:10E87000C45CDE4FE881F981CC53D140EF5FFF4F9C
:10E8800019F0EE27FF27099420E030E040E050E047
:10E890008091C00087FFE0CF2091C600C35DDE4FAE
:10E8A00048815981CD52D1404F5F5F4FC35DDE4FEC
:10E8B00059834883CD52D140213209F063C64A3092
:10E8C000510508F05FC60894811C911C53E0851621
:10E8D000910409F059C600E010E018C081E280936D
:10E8E000C6008091C00086FFFCCF8091C00080648C
:10E8F0008093C0002F5F3F4F2931310579F70F9486
:10E90000DCF10F5F1F4F0530110519F020E030E0FA
:10E91000E5CF10920A0210920B0210920C02109294
:10E920000D02109206021092070210920802109235
:10E930000902109202021092030210920402109235
:10E9400005028FEE90EE60E00F94F5F180E191EE1C
:10E9500060E00F94C2F18091C00087FFFCCF9091DE
:10E96000C600903608F09F759032B8F09093C600BC
:10E970008091C00086FFFCCF8091C00080648093AE
:10E98000C000A0E2A093C6008091C00086FFFCCF2B
:10E990008091C00080648093C000983409F4D7C18E
:10E9A0009934B8F4923409F459C1933458F490333B
:10E9B00019F1903308F4E3C59F33A1F1903409F0C5
:10E9C000DEC5BDC0953409F470C1963409F0D7C5D1
:10E9D00098C1923509F42BC2933538F49C3409F46C
:10E9E000F5C1913509F0CBC518C2963509F445C279
:10E9F000993509F0C4C567C483E792EE62E00F94CD
:10EA0000F5F110920602109207021092080210927D
:10EA1000090210920A0210920B0210920C0210923C
:10EA20000D0213C18FE792EE62E00F94F5F18FEEC5
:10EA300090EE60E00F94F5F181E291EE60E00F94CA
:10EA4000C2F187EB91EE60E00F94F5F180E391EE77
:10EA500060E00F94C2F184EE90EE60E00F94F5F167
:10EA60008FE391EE60E00F94C2F186E090E061E008
:10EA700070E00F9434F20F94DCF18DE591EE60E0DC
:10EA80000F94C2F189EC91EE60E00F94F5F18EE401
:10EA900091EE60E00F94C2F183EC91EE60E00F9490
:10EAA000F5F18CE691EE60E00F94C2F18EE10F94E7
:10EAB0000DF288E90F940DF281E00F940DF20F949E
:10EAC000DCF18BE791EE60E00F94C2F119E0E0E039
:10EAD000F0E010935700E4918E2F0F940DF20F94F5
:10EAE000DCF18AE891EE60E00F94C2F1E3E0F0E03F
:10EAF00010935700E4918E2F0F940DF20F94DCF1D8
:10EB000089E991EE60E00F94C2F1E2E0F0E0109349
:10EB10005700E4918E2F0F940DF20F94DCF188EAE8
:10EB200091EE60E00F94C2F1E1E0F0E01093570045
:10EB30001491812F0F940DF20F94DCF107CF8BE825
:10EB400092EE62E00F94F5F18BE492EE60E00F94A8
:10EB5000F5F10F94DCF100E010E019C0C8016F2D51
:10EB60000F947FFEFF2031F489E492EE60E00F9471
:10EB7000C2F10BC0F092C6008091C00086FFFCCFAE
:10EB80008091C00080648093C0000F5F1F4FC80158
:10EB900081519F41A0E0B0E0ABBFFC01F790BAE229
:10EBA000FB1621F0E2E000301E07C1F60F94DCF105
:10EBB0000F94DCF187E592EE60E00F94F5F10F948D
:10EBC000DCF1CC24DD2400E010E01EC0C8010F946D
:10EBD00077FEF82E882331F489E492EE60E00F94FA
:10EBE000C2F10BC08093C6008091C00086FFFCCFAD
:10EBF0008091C00080648093C000FE1419F00894D6
:10EC0000C11CD11C0F5F1F4FC80181519F41A0E063
:10EC1000B0E0ABBFFC01E790FAE2EF1621F022E092
:10EC20000030120799F60F94DCF10F94DCF182E6C4
:10EC300092EE60E00F94C2F1C60161E070E00F94C3
:10EC400034F20F94DCF10F94DCF110920202109276
:10EC50000302109204021092050278CE89E992EE26
:10EC600062E00F94F5F1279A2F9A16C02F9880E052
:10EC700090E0E0EDF7E03197F1F7019684369105E9
:10EC8000C1F72F9A80E090E0E0EDF7E03197F1F7DF
:10EC9000019684369105C1F78091C00087FFE6CFC9
:10ECA0008091C00087FFFCCF64C485EA92EE62E0E9
:10ECB0000F94F5F140910202509103026091040219
:10ECC0007091050281E020E10F9491F2809102029F
:10ECD00090910302A0910402B091050280509F4FD1
:10ECE000AF4FBF4F8093020290930302A0930402A0
:10ECF000B093050280509041A040B04008F426CE69
:10ED0000A4CF83EB92EE62E00F94F5F140910602FE
:10ED100050910702609108027091090280E020E1A1
:10ED20000F9491F28091060290910702A09108023F
:10ED3000B091090280509F4FAF4FBF4F80930602A2
:10ED400090930702A0930802B0930902FFCD80ECD4
:10ED500092EE62E00F94F5F183E792EE60E00F949B
:10ED6000F5F18FE792EE60E00F94F5F18BE892EE0B
:10ED700060E00F94F5F189E992EE60E00F94F5F10F
:10ED800085EA92EE60E00F94F5F183EB92EE60E09D
:10ED90000F94F5F180EC92EE60E00F94F5F187ECC2
:10EDA00092EE60E00F94F5F188ED92EE60E00F9442
:10EDB000F5F18FED92EE60E00F94F5F18AEE92EEB0
:10EDC00060E00F94F5F183E093EEBDCD87EC92EE19
:10EDD00062E00F94F5F181E40F947BF282E40F94EA
:10EDE0007BF283E40F947BF284E40F947BF285E45E
:10EDF0000F947BF286E40F947BF287E40F947BF20E
:10EE000088E40F947BF28AE40F947BF28BE40F94F6
:10EE10007BF28CE40F947BF299CD88ED92EE62E068
:10EE20000F94F5F1772473948824992409C48FED05
:10EE300092EE62E00F94F5F140910A0250910B02BC
:10EE400060910C0270910D0282E020E10F9491F22A
:10EE500080910A0290910B02A0910C02B0910D02D8
:10EE600080509F4FAF4FBF4F80930A0290930B0289
:10EE7000A0930C02B0930D0269CD8AEE92EE62E08F
:10EE80000F94F5F184EE90EE60E00F94F5F18FECC5
:10EE900091EE60E00F94F5F1662477244301CC5D98
:10EEA000DE4F19821882C452D140D401C301B695F5
:10EEB000A79597958795CA5DDE4F88839983AA8326
:10EEC000BB83C652D140CC5DDE4FA881B981C4520C
:10EED000D1401196CC5DDE4FB983A883C452D14096
:10EEE000CD0162E070E00F9434F2B0E2B093C6005E
:10EEF0008091C00086FFFCCF8091C0008064809329
:10EF0000C000EDE2E093C6008091C00086FFFCCF18
:10EF10008091C00080648093C000F0E2F093C6004E
:10EF20008091C00086FFFCCF8091C00080648093F8
:10EF3000C000CA5DDE4FE880F9800A811B81C6529D
:10EF4000D140BB27A12F902F8F2D0F940DF2CA5DBA
:10EF5000DE4F8881C652D1400F940DF2B0E2FB2EF5
:10EF6000F092C6008091C00086FFFCCF8091C00067
:10EF700080648093C0000DE30093C6008091C000C0
:10EF800086FFFCCF8091C00080648093C00010E2B7
:10EF90001093C6008091C00086FFFCCF8091C00016
:10EFA00080648093C0008BBEF3012791C65DDE4F65
:10EFB0002883CA52D140A22EBB24CC24DD2408943D
:10EFC000611C711C811C911C8BBEF3018791282E42
:10EFD0003324442455240894611C711C811C911C09
:10EFE0008BBEF3013791C55DDE4F3883CB52D140E4
:10EFF0000894611C711C811C911C8BBEF30147910C
:10F00000C45DDE4F4883CC52D140ADEFEA2EAFEF66
:10F01000FA2EAFEF0A2FAFEF1A2F6E0C7F1C801E57
:10F02000911E142D032DF22CEE24EA0CFB1C0C1D5A
:10F030001D1D0F940DF220E22093C6008091C000A8
:10F0400086FFFCCF8091C00080648093C000C65DC5
:10F05000DE4F8881CA52D1400F940DF230E23093D6
:10F06000C6008091C00086FFFCCF8091C000806404
:10F070008093C000C45DDE4F8881CC52D1400F9494
:10F080000DF240E24093C6008091C00086FFFCCFA5
:10F090008091C00080648093C000C55DDE4F888190
:10F0A000CB52D1400F940DF250E25093C6008091A4
:10F0B000C00086FFFCCF8091C00080648093C000B8
:10F0C0008FEFE8168FEFF80680E0080780E018075A
:10F0D00031F484E092EE60E00F94C2F1DFC0D80119
:10F0E000C7018070907CA070B0708050904CA040A0
:10F0F000B040D1F52FEF3FE340E050E0E222F322B1
:10F1000004231523CA5DDE4FA880B980CA80DB8046
:10F11000C652D140AE0CBF1CC01ED11EAA0CBB1CD7
:10F12000CC1CDD1C8EE092EE60E00F94C2F1BB2798
:10F13000A12F902F8F2D0F940DF28E2D0F940DF285
:10F1400030E23093C6008091C00086FFFCCF8091F2
:10F15000C00080648093C0004EE34093C60080915D
:10F16000C00086FFFCCF87C08EE09EEFA0E0B0E03D
:10F17000E822F9220A231B239CE0E91694E9F90608
:10F1800090E0090790E0190709F088C0C45DDE4FE0
:10F19000A881CC52D140EA2EFF2400E010E0102FCD
:10F1A0000F2DFE2CEE24C55DDE4FB881CB52D14031
:10F1B000EB0EF11C011D111DD601C501817090706F
:10F1C000A070B070DC0199278827E80EF91E0A1F8D
:10F1D0001B1F20EF30E040E050E0A222B322C42207
:10F1E000D52241E1AA0CBB1CCC1CDD1C4A95D1F7F1
:10F1F000EA0CFB1C0C1D1D1D81E090E0A0E0B0E0BE
:10F20000282239224A225B2235E1220C331C441C7D
:10F21000551C3A95D1F7E20CF31C041D151D57013E
:10F220006801AA0CBB1CCC1CDD1C85E192EE60E0E1
:10F230000F94C2F1C801AA27BB270F940DF2BB2778
:10F24000A12F902F8F2D0F940DF28E2D0F940DF274
:10F2500090E29093C6008091C00086FFFCCF809121
:10F26000C00080648093C000AEE3A093C60080918C
:10F27000C00086FFFCCF8091C00080648093C000F6
:10F28000C601AA27BB270F940DF2BB27AD2D9C2DDD
:10F290008B2D0F940DF28A2D0F940DF20F94DCF14B
:10F2A000CC5DDE4FE881F981C452D140F99709F471
:10F2B0004DCBF4E0EF2EF12C012D112D6E0C7F1CA7
:10F2C000801E911EF2CD83E093EE62E00F94F5F183
:10F2D0008AE192EE60E00F94C2F18091C00087FF56
:10F2E000FCCF1091C6001F751093C6008091C0001E
:10F2F00086FFFCCF8091C00080648093C0000F9493
:10F30000DCF1812F81548A3108F036C1163409F4BA
:10F3100095C0173490F4133409F44EC0143430F40B
:10F320001134F1F0123409F01DC130C0143409F465
:10F3300059C0153409F016C16BC01A3409F4C4C0A1
:10F340001B3438F4173409F48FC0183409F00AC19B
:10F35000A1C01B3409F4D2C01C3409F003C1E8C0B9
:10F360008FEF81B90DC082B1809582B980E090E0C5
:10F37000E0EDF7E03197F1F70196883C9105C1F790
:10F380008091C00087FFEFCF12B8EFC08FEF84B934
:10F390000DC085B1809585B980E090E0E0EDF7E0A3
:10F3A0003197F1F70196883C9105C1F78091C00033
